S00B00006C63642E73726563E6
S11300000C942A000C9447000C9447000C9447006D
S11300100C9447000C9447000C9447000C94470040
S11300200C9447000C9447000C9447000C94470030
S11300300C9447000C9447000C9447000C94470020
S11300400C9447000C9447000C9447000C94470010
S11300500C94470011241FBECFE5D4E0DEBFCDBF12
S113006010E0A0E6B0E0EAEBF4E002C005900D92E7
S1130070A037B107D9F720E0A0E7B0E001C01D9296
S1130080AC38B207E1F70E94DA000C945B020C94DE
S113009000000E94A60189EF90E00197F1F700C0EB
S11300A00000089562E080E00E94310280E690E062
S11300B00E941C0246E650E062E081E00E94500289
S11300C02FEB87E299E0215080409040E1F700C097
S11300D000000895FC018081823449F018F48134D1
S11300E089F40EC0833431F0843461F406C0A7E38C
S11300F0B0E008C0A4E3B0E005C0A1E3B0E002C0F2
S1130100AAE3B0E08281813069F44C9121E030E0CF
S1130110C901018002C0880F991F0A94E2F7842B59
S11301208C93089581110DC04C9121E030E0C901F8
S1130130018002C0880F991F0A94E2F780958423F6
S11301408C930895FC018081823449F018F4813441
S113015089F40EC0833431F0843461F406C0A8E31A
S1130160B0E008C0A5E3B0E005C0A2E3B0E002C07F
S1130170ABE3B0E08381813069F44C9121E030E05D
S1130180C901018002C0880F991F0A94E2F7842BE9
S11301908C93089581110DC04C9121E030E0C90188
S11301A0018002C0880F991F0A94E2F78095842386
S11301B08C9308950E9449000E945200FFCFEF9251
S11301C0FF920F931F93CF93DF93E82EC1E0C09368
S11301D0730080E790E00E94A2001092770084E709
S11301E090E00E94A20089EF90E00197F1F700C02F
S11301F00000C0937B0088E790E00E94A200E9EF32
S1130200F0E03197F1F700C000000FE710E0C0E024
S1130210D0E0F12C97010C2E02C0359527950A9455
S1130220E2F721703327F8012083CE01880F991F4C
S1130230880F991F84589F4F0E94A20021960C5F3B
S11302401F4FC430D10531F789EF90E00197F1F7E2
S113025000C0000010927B0088E790E00E94A2009A
S1130260E9EFF0E03197F1F700C00000DF91CF91A2
S11302701F910F91FF90EF900895EF92FF920F93CB
S11302801F93CF93DF93E82E1092730080E790E0E2
S11302900E94A2001092770084E790E00E94A200DE
S11302A089EF90E00197F1F700C0000081E08093AE
S11302B07B0088E790E00E94A200E9EFF0E031972C
S11302C0F1F700C000000FE710E0C0E0D0E0F12C2F
S11302D097010C2E02C0359527950A94E2F72170F8
S11302E03327F8012083CE01880F991F880F991FA7
S11302F084589F4F0E94A20021960C5F1F4FC43068
S1130300D10531F789EF90E00197F1F700C00000C3
S113031010927B0088E790E00E94A200E9EFF0E0F1
S11303203197F1F700C00000DF91CF911F910F9139
S1130330FF90EF900895CF93C82F82958F700E94FD
S11303403D018C2F0E943D01CF910895CF93DF93FF
S113035081E0809372001092730080937600109273
S1130360770080937A0010927B0044E04093710000
S113037094E49093700035E030937500909374008A
S113038026E0209379009093780080937E00109269
S11303907F008093820010928300809386001092E5
S11303A0870080938A0010928B0040937D003093E5
S11303B081002093850087E08093890083E4809303
S11303C07C0080938000809384008093880080E781
S11303D090E00E946A0084E790E00E946A0088E747
S11303E090E00E946A00C0E0D0E0CE01880F991F1F
S11303F0880F991F84589F4F0E946A002196C43029
S1130400D10599F782E00E949B0188E20E949B013A
S11304108CE00E949B0181E00E949B01DF91CF91BF
S11304200895CF93C82F82958F700E94DF008C2F80
S11304300E94DF00CF9108951F93CF93DF93EC01C7
S11304408881882351F010E00E9411021F5FFE0191
S1130450E10FF11D80818111F7CFDF91CF911F91C1
S11304600895CF93DF931F92CDB7DEB7813041F06B
S113047028F0823041F0833059F408C0698308C001
S1130480605C698305C0605F698302C0605B6983E7
S1130490898180680E949B010F90DF91CF9108951C
S11304A0CF93DF93EA010E943102CE010E941C0225
S10D04B0DF91CF910895F894FFCF77
S11304BA416973686100416C6162617369727900B0
S9030000FC
